EX2000074212012030520120305                                                                                                                                                                                                                                                                                                                                                                                                                                                                                                                                                                                             
EX201007421BSAL72                        01620100701        20100815201009150002010002                                             000000000010000                                                                                                                                                                                                                                                                                                                                                                                                                                                                      
EX202007421BSAL72                        X6321392A           11VIVIANA ALARCON CEVALLOS                                                                                              724          1000002724                                                                                                                                                                                                                                                                                                                                                                                                            
EX203007421BSAL72                        X6321392A           1AVENIDA NOVELDA 47, 2 IZQ                                                                                           ALICANTE                                          287243690                     102724                                                                                                                                                                                                                                                                                                                                                
EX201007421CAPA47                        01620100412        20100515201006150002010002                                             000000000014900                                                                                                                                                                                                                                                                                                                                                                                                                                                                      
EX202007421CAPA47                        24143055R           11ANTONIO GOMEZ INIESTA                                                                                                 724          1000001724                                                                                                                                                                                                                                                                                                                                                                                                            
EX203007421CAPA47                        24143055R           1C/ PEDRO MAST REUS 2º PLANTA                                                                                        ALCUDIA                                           287247400                     101724                                                                                                                                                                                                                                                                                                                                                
EX201007421CAPA75                        01620100422        20100515201007150003010003                                             000000000029900                                                                                                                                                                                                                                                                                                                                                                                                                                                                      
EX202007421CAPA75                        37342657H           11MARIA DEL MAR MACHADO                                                                                                 724          1000001724                                                                                                                                                                                                                                                                                                                                                                                                            
EX203007421CAPA75                        37342657H           1C/ GABRIEL LLABRES Nº 5 2º B                                                                                        ALCUDIA                                           287247400                     101724                                                                                                                                                                                                                                                                                                                                                
EX201007421CAMU15                        01620080929        20081101200812010002010002                                             000000000024900                                                                                                                                                                                                                                                                                                                                                                                                                                                                      
EX202007421CAMU15                        X6426855B           11NELLY TERESA VARGAS RODRIGUEZ                                                                                         724          1000002724                                                                                                                                                                                                                                                                                                                                                                                                            
EX203007421CAMU15                        X6426855B           1C/ CONDE DEL CAMPILLO,1º G PTA 2                                                                                    MURCIA                                            2872430002                    102724                                                                                                                                                                                                                                                                                                                                                
EX201007421CFCO155                       01620100429        20100515201005150001010001                                             000000000017450                                                                                                                                                                                                                                                                                                                                                                                                                                                                      
EX202007421CFCO155                       30997215T           11MOISES NAVARRO NAVAS                                                                                                  724          1000001724                                                                                                                                                                                                                                                                                                                                                                                                            
EX203007421CFCO155                       30997215T           1CARRETERA MADRID Nº 174 1º 1                                                                                        ALCOLEA                                           2872414610                    101724                                                                                                                                                                                                                                                                                                                                                
EX201007421CUZA86                        01620100923        20100923201010150002010002                                             000000000034900                                                                                                                                                                                                                                                                                                                                                                                                                                                                      
EX202007421CUZA86                        17176635M           11MARIA DOLORES HERNANDEZ MARIN                                                                                         724          1000001724                                                                                                                                                                                                                                                                                                                                                                                                            
EX203007421CUZA86                        17176635M           1C/ FRAY JULIAN GARCES 27 3ºB                                                                                        ZARAGOZA                                          2872450007                    101724                                                                                                                                                                                                                                                                                                                                                
EX201007421CHPA51                        01620101104        20101106201011060001010001                                             000000000024900                                                                                                                                                                                                                                                                                                                                                                                                                                                                      
EX202007421CHPA51                        41345719E           11MARIA VICTORIA LOPEZ CABALLERO                                                                                        724          1000001724                                                                                                                                                                                                                                                                                                                                                                                                            
EX203007421CHPA51                        41345719E           1C/ SEVILLA Nº 8 BLQ-2 ESC-B BAJO-C                                                                                  PALMA DE MALLORCA                                 287247011                     101724                                                                                                                                                                                                                                                                                                                                                
EX201007421DGCU61                        01620100415        20100416201004160001010001                                             000000000029900                                                                                                                                                                                                                                                                                                                                                                                                                                                                      
EX202007421DGCU61                        30661114K           11MARIA PEREDA VIÑE                                                                                                     724          1000001724                                                                                                                                                                                                                                                                                                                                                                                                            
EX203007421DGCU61                        30661114K           1C/ BRAZO MAR Nº 7 4º B                                                                                              CASTRO URDIALES                                   2872439700                    101724                                                                                                                                                                                                                                                                                                                                                
EX201007421DGCU92                        01620100421        20100422201004220001010001                                             000000000029900                                                                                                                                                                                                                                                                                                                                                                                                                                                                      
EX202007421DGCU92                        X6845152F           11MEIRELES SILVIA SUZY                                                                                                  724          1000002724                                                                                                                                                                                                                                                                                                                                                                                                            
EX203007421DGCU92                        X6845152F           1C/ ATAULFO ANGENTA Nº 9 5º A                                                                                        CASTRO URDIALES                                   2872439700                    102724                                                                                                                                                                                                                                                                                                                                                
EX201007421SETO2                         01620091110        20091201200912010001010001                                             000000000021900                                                                                                                                                                                                                                                                                                                                                                                                                                                                      
EX202007421SETO2                         3949466K            11JAQUELINE SOLIZ ZEVALIOS                                                                                              724          1000001724                                                                                                                                                                                                                                                                                                                                                                                                            
EX203007421SETO2                         3949466K            1c/RAMON Y CAJAL nº13                                                                                                SESEÑA VIEJO                                      2872445223                    101724                                                                                                                                                                                                                                                                                                                                                
EX201007421DEZA593                       01620100807        20100809201008090001010001                                             000000000029900                                                                                                                                                                                                                                                                                                                                                                                                                                                                      
EX202007421DEZA593                       X5689889B           11XINMIAO XHANG                                                                                                         724          1000002724                                                                                                                                                                                                                                                                                                                                                                                                            
EX203007421DEZA593                       X5689889B           1C/ JORDANA Nº 17 2º A                                                                                               ZARAGOZA                                          2872450010                    102724                                                                                                                                                                                                                                                                                                                                                
EX201007421DEZA186                       01620100512        20100513201005130001010001                                             000000000029900                                                                                                                                                                                                                                                                                                                                                                                                                                                                      
EX202007421DEZA186                       X5772446K           11SILVIA IOSIF                                                                                                          724          1000002724                                                                                                                                                                                                                                                                                                                                                                                                            
EX203007421DEZA186                       X5772446K           1C/ OBISPO PATERNON Nº2 BAJO H                                                                                       ZARAGOZA                                          2872450011                    102724                                                                                                                                                                                                                                                                                                                                                
EX201007421DEZA447                       01620100707        20100708201007080001010001                                             000000000029900                                                                                                                                                                                                                                                                                                                                                                                                                                                                      
EX202007421DEZA447                       X6198130K           11BLANCA ALICIA SOTO                                                                                                    724          1000002724                                                                                                                                                                                                                                                                                                                                                                                                            
EX203007421DEZA447                       X6198130K           1AVDA. CESAR AUGUSTO, 72 3º                                                                                          ZARAGOZA                                          2872450003                    102724                                                                                                                                                                                                                                                                                                                                                
EX201007421EDAL36                        01620100923        20100901201012010003010003                                             000000000012900                                                                                                                                                                                                                                                                                                                                                                                                                                                                      
EX202007421EDAL36                        53219935 M          11LORETO SIVERA ANDRES                                                                                                  724          1000004724                                                                                                                                                                                                                                                                                                                                                                                                            
EX203007421EDAL36                        53219935 M          1C/ ARQUITECTO URTEAGA 22 3º 14                                                                                      JAVEA                                             287243710                     104724                                                                                                                                                                                                                                                                                                                                                
EX201007421ESTO87                        01620100330        20100415201006150003010003                                             000000000012900                                                                                                                                                                                                                                                                                                                                                                                                                                                                      
EX202007421ESTO87                        53204298P           11JOSE MIGUEL VAQUERO SANZ                                                                                              724          1000001724                                                                                                                                                                                                                                                                                                                                                                                                            
EX203007421ESTO87                        53204298P           1C/ L` HORTA Nº21 PUERTA 11                                                                                          TORRENT                                           2872446900                    101724                                                                                                                                                                                                                                                                                                                                                
EX201007421ESTO109                       01620100406        20100715201007150001010001                                             000000000004300                                                                                                                                                                                                                                                                                                                                                                                                                                                                      
EX202007421ESTO109                       53204528P           11Mª JESUS VAQUERO SANZ                                                                                                 724          1000001724                                                                                                                                                                                                                                                                                                                                                                                                            
EX203007421ESTO109                       53204528P           1C/ 25 DE ABRIL 11 PTA10                                                                                             TORRENT                                           2872446900                    101724                                                                                                                                                                                                                                                                                                                                                
EX201007421EWTC177                       01620100925        20101015201012150003010003                                             000000000049900                                                                                                                                                                                                                                                                                                                                                                                                                                                                      
EX202007421EWTC177                       06014430E           11ROSA MANRIQUE LEON                                                                                                    724          1000001724                                                                                                                                                                                                                                                                                                                                                                                                            
EX203007421EWTC177                       06014430E           1C/ LITERATOS Nº 25 P-7 IZQ                                                                                          TRES CANTOS                                       2872428760                    101724                                                                                                                                                                                                                                                                                                                                                
EX201007421EUGR24                        01620100920        20101015201010150001010001                                             000000000009950                                                                                                                                                                                                                                                                                                                                                                                                                                                                      
EX202007421EUGR24                        24296241F           11PURIFICACION PORTERO PEREZ                                                                                            724          1000001724                                                                                                                                                                                                                                                                                                                                                                                                            
EX203007421EUGR24                        24296241F           1C/ INGENIERO SANTA CRUZ Nº 104                                                                                      HUETOR VEGA                                       2872418198                    101724                                                                                                                                                                                                                                                                                                                                                
EX201007421ESGR54                        01620100929        20101115201012150002010002                                             000000000019900                                                                                                                                                                                                                                                                                                                                                                                                                                                                      
EX202007421ESGR54                        76440035H           11JOSE MANUEL RUEDA MARTINEZ                                                                                            724          1000001724                                                                                                                                                                                                                                                                                                                                                                                                            
EX203007421ESGR54                        76440035H           1C/ PINGARON Nº 1 1º B                                                                                               HUETOR VEGA                                       2872418198                    101724                                                                                                                                                                                                                                                                                                                                                
EX201007421EXCO74                        01620100122        20100125201001250001010001                                             000000000024900                                                                                                                                                                                                                                                                                                                                                                                                                                                                      
EX202007421EXCO74                        30954905X           11RAFAEL MIGUEL GARCIA VILLAR                                                                                           724          1000001724                                                                                                                                                                                                                                                                                                                                                                                                            
EX203007421EXCO74                        30954905X           1CAMPOS MADRES DE DIOS,34  2º C                                                                                      CORDOBA                                           2872414002                    101724                                                                                                                                                                                                                                                                                                                                                
EX201007421FCCA217                       01620100123        20100215201003150002010002                                             000000000007900                                                                                                                                                                                                                                                                                                                                                                                                                                                                      
EX202007421FCCA217                       73981267L           11PEPA MARTI SANTACREU                                                                                                  724          1000001724                                                                                                                                                                                                                                                                                                                                                                                                            
EX203007421FCCA217                       73981267L           1C/ VIRGEN DE LOS DESAMPARADOS Nº 16                                                                                 SENIJA                                            287243729                     101724                                                                                                                                                                                                                                                                                                                                                
EX201007421FCTO81                        01620100420        20100424201006150003010003                                             000000000029900                                                                                                                                                                                                                                                                                                                                                                                                                                                                      
EX202007421FCTO81                        X1314329V           11LUZ MARIA PACHAO SALVATIERRA                                                                                          724          1000002724                                                                                                                                                                                                                                                                                                                                                                                                            
EX203007421FCTO81                        X1314329V           1C/ LA CAÑADA Nº40 B IZQ                                                                                             TORREJON DE ARDOZ                                 2872428850                    102724                                                                                                                                                                                                                                                                                                                                                
EX201007421FLGR62                        01620100611        20100715201007150001010001                                             000000000014900                                                                                                                                                                                                                                                                                                                                                                                                                                                                      
EX202007421FLGR62                        24074777X           11ANTONIO LOPEZ MORILLAS                                                                                                724          1000001724                                                                                                                                                                                                                                                                                                                                                                                                            
EX203007421FLGR62                        24074777X           1GRANATE 24                                                                                                          PULIANAS                                          2872418197                    101724                                                                                                                                                                                                                                                                                                                                                
EX201007421FLGR149                       01620100629        20100701201009150003010003                                             000000000029900                                                                                                                                                                                                                                                                                                                                                                                                                                                                      
EX202007421FLGR149                       44298723X           11JUAN JOSE MARTINEZ MARTINEZ                                                                                           724          1000001724                                                                                                                                                                                                                                                                                                                                                                                                            
EX203007421FLGR149                       44298723X           1C/ SANTA BARBARA, 10                                                                                                PELIGROS                                          2872418210                    101724                                                                                                                                                                                                                                                                                                                                                
EX201007421FOCA162                       01620091117        20100115201001150001010001                                             000000000007600                                                                                                                                                                                                                                                                                                                                                                                                                                                                      
EX202007421FOCA162                       X6921767D           11LADY JUANA SANCHEZ LOPEZ                                                                                              724          1000002724                                                                                                                                                                                                                                                                                                                                                                                                            
EX203007421FOCA162                       X6921767D           1FILOSOFO BALMES Nº2, 2                                                                                              CASTELLON                                         2872412003                    102724                                                                                                                                                                                                                                                                                                                                                
EX201007421FOCA27                        01620090909        20091001200911010002010002                                             000000000024900                                                                                                                                                                                                                                                                                                                                                                                                                                                                      
EX202007421FOCA27                        X9108176S           11VERONICA RADU                                                                                                         724          1000002724                                                                                                                                                                                                                                                                                                                                                                                                            
EX203007421FOCA27                        X9108176S           1C/ JUAN RAMON JIMENEZ Nº 2-3º 5                                                                                     CASTELLON                                         2872412006                    102724                                                                                                                                                                                                                                                                                                                                                
EX29990742120120305000000026000000026000000026000000080                                                                                                                                                                                                                                                                                                                                                                                                                                                                                                                                                                 
